S00D000054465433322E73726563C4
S1130000F8FF002011040000ED280000ED28000096
S1130010ED280000ED280000ED280000ED28000088
S1130020ED280000ED280000ED280000ED28000078
S1130030ED280000ED280000ED280000ED28000068
S1130040BB230000ED280000ED280000ED2800008F
S1130050ED280000ED280000ED280000ED28000048
S1130060ED280000ED280000ED280000ED28000038
S1130070ED280000ED280000ED280000ED28000028
S1130080ED280000ED280000ED280000ED28000018
S1130090ED280000ED280000ED280000ED28000008
S11300A0ED280000ED280000ED280000ED280000F8
S11300B0ED280000ED280000ED280000ED280000E8
S11300C0ED280000ED280000ED280000ED280000D8
S11300D0ED280000ED280000ED280000ED280000C8
S11300E0ED280000ED280000ED280000ED280000B8
S11300F0ED280000ED280000ED280000ED280000A8
S1130100ED280000ED280000ED280000ED28000097
S1130110ED280000B9230000ED280000ED280000C0
S1130120ED280000ED280000ED280000ED28000077
S1130130ED280000ED280000BD230000C5230000C9
S1130140CD230000ED280000ED280000ED2800007C
S1130150CF230000E7230000FB2300000924000054
S1130160ED280000ED280000ED280000ED28000037
S1130170ED280000ED280000ED280000ED28000027
S1130180ED280000ED280000ED280000ED28000017
S1130190ED280000ED280000ED28000017240000E1
S11301A02D2400004324000091240000A724000013
S11301B0ED280000ED280000ED280000ED280000E7
S11301C0ED280000ED280000ED280000ED280000D7
S11301D0ED280000ED280000ED280000ED280000C7
S11301E0ED280000ED280000ED280000ED280000B7
S1130400FFFFFFFFFFFFFFFFFFFFFFFFFEFFFFFFF9
S11304104FF000004FF000014FF000024FF00003D6
S11304204FF000044FF000054FF000064FF00007B6
S11304304FF000084FF000094FF0000A4FF0000B96
S11304404FF0000C62B602F075F8FEE72DE9F04FAC
S1130450A1B08246002017461D4602910B900DF173
S1130460440B6FF000490AE017F8011B0298D047CB
S11304700290002800F0A9820B98401C0B90387859
S113048008B90B98A3E22528EED100200590069028
S11304900790089009900A9001E040F0010017F8D5
S11304A0011F2029F9D023290DD02B2904D02D296F
S11304B006D030290AD00CE040F0020080B2EEE70A
S11304C040F00400FAE740F00800F7E740F01000BD
S11304D0F4E72A290ED12968296051F8042B2960F0
S11304E00D92002A04D5514240F004000D9180B2CF
S11304F07F1C11E000210D9109E00D99494505D0BB
S113050001EB810302EB430130390D917F1C3A78F2
S1130510A2F130010A29F0D339782E2903D04FF003
S1130520FF310C911DE017F8011F2A2907D1296812
S113053029607F1C51F8042B29600C9211E00021E2
S11305400C9109E00C99494505D001EB810302EBBC
S1130550430130390C917F1C3A78A2F130010A2909
S1130560F0D3ADF838000FF67440397800F054FE3B
S113057008B117F8010B8DF83A009DF83A00682885
S113058002BF39786829622005D06C2804BF387806
S11305906C2803D171208DF83A007F1C11A80490B7
S11305A017F8014BB4F125002AD01C3800F0CD8097
S11305B0001F022840F2C980133800F0EF80093888
S11305C000F0C380801E00F05081401E00F02581A1
S11305D0401E022840F2B980001F00F01E81401F17
S11305E000F08480401E00F0D980401E29D0C01E37
S11305F00CD0801E00F0D280C01E00F0CF803EE1FF
S11306000120059025208DF8440044E128682860E5
S113061050F8044B28600394DDF83080B8F1000FE3
S113062004D5204600F004FE804607E0424600213F
S1130630204600F019FE08B1A0EB0408CDF818809C
S113064029E1296829604FF03C0851F8040B29601E
S11306500021CDE9000111A80390DDE90001049C0B
S113066011B908B90C9ACAB10206120FA0EB021212
S11306703032A8F1010ED2B2F0463A2AA8BF27328E
S113068000090EF8042040EA0170090908BF002897
S113069004D0039A08EB04039A42E5D308EB040060
S11306A00390C8F13C010C980691814209DA401A82
S11306B008904FF6EF71BDF838000840ADF83800E7
S11306C0E9E0002840F1E7809DF8380000F01400CC
S11306D0102840F0E0800D98059A801A089A801A34
S11306E0401A0128C0F2D7800890D4E09DF83A005F
S11306F062281AD0682806D06A280CD06C281CD02E
S1130700712808D019E02868286050F8041B286074
S11307100B980880BFE02868286050F8042B2860F4
S11307200B98C117C2E90001B5E02868286050F8A9
S1130730041B28600B980870ADE02868286050F806
S1130740041B28600B980860A5E02868C01D20F0F1
S113075007022A60D2E9000108322A60CDE90001CB
S1130760002903D5012005902D200CE0BDF83800A8
S1130770810703D5012005902B2004E0C00704D590
S11307800120059020208DF84400059911A808182F
S11307900390214600A800F0D7F97CE09DF83A20A8
S11307A06C2A0DD0712A18BF6A2A09D12868C01D85
S11307B020F007032B60D3E9000108332B6005E028
S11307C02968296051F8040B29600021CDE9000152
S11307D0682A08BF80B207D0622A08BFC0B203D01B
S11307E0742A18BF7A2A02D10021CDE900019DF8AC
S11307F03800000730D5DDE90001002908BF0028D2
S11308002AD044F02000782826D130208DF84400E6
S11308108BF80140022005901EE029469DF83A001D
S113082000F0D8F8CDE90001002904DA0598411C4C
S113083005912D210EE0BDF83800810704D50598F7
S1130840411C05912B2105E0C00705D50598411CE5
S11308500591202100F80B10059911A808180390A0
S1130860214600A800F0EDF815E001200590286865
S1130870286050F8041B28608DF844100BE0012018
S1130880059025208DF84400002C04D00598411CC7
S1130890059100F80B400D980599401A0899401AE3
S11308A00699401A0999401A0799401A0A99A0EB27
S11308B001089DF8380040070FD420208DF840002F
S11308C0002408E0012310AA00A9504600F06FFCA0
S11308D000287AD1641C4445F4DB059C11AE0AE07F
S11308E016F8011B0298D047029000286DD00B988F
S11308F0401C0B90641E002CF2D130208DF8400077
S11309000026089C08E0012310AA00A9504600F024
S11309104EFC002859D1761CA642F4DB069C039EAB
S11309200AE016F8011B0298D047029000284CD028
S11309300B98401C0B90641E002CF2D130208DF8D3
S113094040000026099C07E0012310AA00A9504694
S113095000F02DFCC8BB761CA642F5DB0398069973
S1130960079C0E1809E016F8011B0298D047029064
S113097058B30B98401C0B90641E002CF3D130200C
S11309808DF8400000260A9C07E0012310AA00A964
S1130990504600F00CFCC0B9761CA642F5DB9DF86D
S11309A0380040077FF56BAD20208DF8400000240F
S11309B000E0641C4445BFF662AD012310AA00A9FF
S11309C0504600F0F4FB0028F3D04FF0FF3021B084
S11309D0BDE8F08F622826D068281DD06A2808D088
S11309E06C2827D0712804D0742823D07A280CD0FE
S11309F020E00868C01D20F007000860D0E900234B
S1130A00083008601946104670470A680A6052F8B0
S1130A10040B0A60002170470A680A6052F8040B4C
S1130A200A6000B20BE00A680A6052F8040B0A601C
S1130A3040B204E00A680A6052F8040B0A60C11765
S1130A4070472DE9FA4E05460A462F696F2A08BFFA
S1130A50082405D041F02000782814BF0A2410246B
S1130A60D5E900013C2681468A46642A18BF692AD2
S1130A7005D1002903DAD9F100096AEB4A0ABAF16F
S1130A80000F08BFB9F1000F0CD1286B50B9082C26
S1130A9036D195F83800000732D530203B2687F848
S1130AA03B002DE0E31748465146224600F008FC7F
S1130AB0A4FB0023A9EB02023032A6F1010BD2B24F
S1130AC05E463A2A03DB9DF80030513B9A180BF836
S1130AD0072081465FEA010A08BFB9F1000F03D07D
S1130AE0E868F1198842DDD3082C09D195F838005B
S1130AF0000705D5F05D302802D0761E3020F05571
S1130B00C6F13C00A861F119E960296B884208DA52
S1130B10081A28624FF6EF71288F08402887BDE82D
S1130B20F38E00290ED595F8381001F01401102920
S1130B3008D1696B6A69891A2A6A891A081A01280C
S1130B40A8BF2862BDE8F38E2DE9F24F04468EB0AB
S1130B50D4E90001CDE9020104AF9DF8380040F06A
S1130B60200BBBF1610F0AD0206B002848BF062080
S1130B7004D408BFBBF1670F01D101202063616871
S1130B80C1F30A5040F2FF7290421CD1080304BF23
S1130B902068002809D10320A0619DF8380061383D
S1130BA01A2836D30FF2486108E00320A0619DF8AB
S1130BB0380061381A2829D30FF22C61E068032227
S1130BC000F0F6FBBEE1012816DA204600F02BFC0B
S1130BD0012811DB00250020BBF1610F20D1E16861
S1130BE0302201F8012B4A1CE2609DF83820612A6A
S1130BF00CBF782258220FE0626840F2FE3161F3A4
S1130C001E52451A62604FF0FF30E5E70FF2D451EF
S1130C10D4E70FF2D851D1E70A706169891C616188
S1130C2010B90026002584E1BBF1610F40F09780E4
S1130C30206B00284CBF2126461CDDE90201D4E9C3
S1130C4000AB0022002336B200F00EFC06F10108CE
S1130C503ABF8BF00040CDE902A0CDE902AB2D1FD5
S1130C608DF810200DF1110700E0C71DB8F1010F38
S1130C7033DBDDE902010022002300F00DFC2CD25D
S1130C801C2102A800F020FCDDE9020100F0A2FC16
S1130C90A8F107088146B8F1010F09DB00F0C6FC92
S1130CA002460B46DDE9020100F0D8FCCDE9020161
S1130CB0F81D072105E009F00F0200F8012D4FEAA5
S1130CC02919B9F1010F01DB491EF4D5491E5CBF96
S1130CD0002200F8012DF9D5C7E70DF11100391AEA
S1130CE00DF11107B142B8BF0E4636B230002FD411
S1130CF0884206DA04A9411849780829A8BF0F21B7
S1130D0000DA002104AA821800E0761E12F80139E4
S1130D10401E8B42F9D00F2904D104A941184A7806
S1130D20521C4A70002802D504AF761C2D1D36B221
S1130D30701E0DD4C1190A783032D2B23A2A03DBBC
S1130D409DF838303A3B9A1801F80129401EF2D533
S1130D50206B002840F1ED80701E2063E9E0DDE99E
S1130D6002010022002300F07FFB3CBF81F0004120
S1130D70CDE902012DB247F2975068434B49DFF8A1
S1130D80309190FBF1F52DB2C5F1070A9046BAF106
S1130D90010F1CDBDDE902675FEACA7007D5424632
S1130DA04B463046394600F019FD06460F464FEAD9
S1130DB06A0A4046494642464B4600F00FFD8046CB
S1130DC08946BAF1000FE7D1CDE9026724E0CAF100
S1130DD0000A0026374F14E05FEACA7007D542467E
S1130DE04B463046394600F0F9FC06460F464FEABA
S1130DF06A0A4046494642464B4600F0EFFC8046AC
S1130E008946BAF1000FE7D1DDE9020132463B46DB
S1130E1000F0B6FDCDE90201BBF1660F0CBF05F190
S1130E200A000620216B4618142EA8BF1326302072
S1130E308DF810000DF11107DFF87C90012E3DDBD9
S1130E40DDE9020100F0DCFB07F1080104220A23BA
S1130E50B0FBF3F303EB8307A0EB4700303001F85A
S1130E60010D0A20B3FBF0F000EB8007A3EB47036E
S1130E70303301F8013D521EE9D1083E01F1080763
S1130E80012EDBDBDDE9020100F0BAFB00F0D8FB48
S1130E9002460B46DDE9020100F0E0FB00224B466E
S1130EA000F09CFCCDE90201CAE700BFA086010066
S1130EB0000024400000F03F84D797410DF1110059
S1130EC0381A0DF1110702E0401E6D1E7F1C39789F
S1130ED03029F9D0BBF1660F02D12DB2691C04E0B0
S1130EE0BBF1650F0CBF01210021226B8E1836B2B5
S1130EF0B042B8BF064636B231001AD4814204DA91
S1130F00C85D3528A8BF392000DA3020CA19521E1E
S1130F1000E0761E12F80139491E8342F9D03928BF
S1130F2002D1C85D401CC855002902D57F1E761C1D
S1130F306D1C2DB29DF83810009533B23A46204608
S1130F4000F003F80FB0BDE8F08F2DE9F04305463B
S1130F5085B01E46D5F8308089461746012E02DA40
S1130F6001260FF2902749F02000BDF93040662891
S1130F7008BF641C17D0672840F0828014F1040F66
S1130F80C0F28480444580F2818095F83800641C66
S1130F90000702D44645B8BFB04624B2B8EB0408F3
S1130FA048BF4FF00008E868A96924B2012C25DA8B
S1130FB030234A1C0B54B8F1010F03DA95F83810AA
S1130FC0090702D52E211154521CAA6118EB040FF3
S1130FD0B8BFC8F1000424B26142A0446962B045BC
S1130FE0B8BF464636B2EE613246AB693946181888
S1130FF000F0DEF9A8EB0600A862C1E00818A642DA
S113100018DA3246394600F0D3F9A9697118A96192
S1131010A01B6862B8F1010F03DA95F838000007E5
S113102005D5EA682E208854E869401CE861C5F8B3
S11310302880A5E02246394600F0BAF9A8692018AC
S1131040361BB8F1010F03DA95F83810090703D5F8
S1131050EA682E218154401C36B2A861B045B8BF5D
S11310604646E868AB6936B23246E119181800F012
S11310709FF9A8693018A861A8EB060068627FE0B0
S1131080B9F1610F16D14FF0700918E0464504DA42
S113109095F83810090758BFB046B8F1010848BFA1
S11310A04FF00008B9F1670F14BF4FF045094FF036
S11310B0650904E0B9F1410F08BF4FF05009A9696F
S11310C0E86817F8013B0B544A1CB8F1010F05DA24
S11310D095F83810090758BFAA6117D52E21115465
S11310E0531CAB61B8F1010F10DB761E36B2B0456C
S11310F0B8BF464636B232463946181800F058F999
S1131100A8693018A861A8EB06006862E868A969B4
S11311100F18200007F8019B03D42B2007F8010BBC
S113112003E02D2107F8011B644200260DF1080895
S113113008E00A2200A800F046FD019808F8010B17
S1131140761C009C21B20129F3DA022E06DA49F05A
S11311502000652804BF302007F8010B4EB9302069
S113116007F8010B07E0761E02A8305C303007F860
S1131170010B012EF7DAE868A9690818381AE86142
S113118095F8380000F0140010280DD16869A96999
S11311900818696A0818E9690818A96A0818696BBF
S11311A08842BCBF081A286205B0BDE8F083F8B5D0
S11311B004460D4616461F46002004E0E86A401C1B
S11311C0E8627F1E002047B116F8011BA868A047FB
S11311D0A8600028F2D14FF0FF30F2BD686A6C7449
S11311E07A4C00006E616E004E414E00696E6600DE
S11311F0494E4600300050F8041B61B150F8042BEE
S1131200D30744BFA9F101039A18002342F8043B11
S1131210091FFAD1EFE770470278C9B28A421AB1BE
S11312201CBF10F8012FF9E718BF00207047000019
S113123000F10103810704D010F8011B89B1810773
S1131240FAD10268B2F10131914311F0803F04BF39
S113125050F8042FF6E710F8011B11B110F8011B28
S1131260FBE7C01A70470000C9B2830706D0521EBC
S113127022D310F8013B9942F7D11FE0083A13D367
S113128002F1040241EA012141EA014150F8043B20
S1131290121F21BF4B40A3F1013C2CEA030C1CF0AC
S11312A0803FF3D0C9B2001F083210F8013B521E30
S11312B028BF91EA030FF8D818BF0120401E7047D9
S11312C01B4213D1094236D12AB18446B0FBF2F055
S11312D002FB10C2704700F07DBCFCD30022002347
S11312E070470B000200002100207047904271EB10
S11312F0030CF6D370B5B1FA81F4B3FA83F52C1B61
S1131300A340C4F1200532FA05F63343A2405FF04E
S11313100046E64002E05B085FEA3202841A71EBA1
S1131320030524BF204629467641F4D302000B006E
S11313303000002170BD012ACFD970B5140C20D023
S1131340B1FA81F4B2FA82F5C4F120046419B4F15B
S11313502006D6D3B2405FF00044F440002502E0FA
S113136052085FEA3303C61A71EB020E24BF3046FB
S1131370714664416D41F3D302000B002000290043
S113138070BD0C46B1FBF2F102FB11452D0445EA98
S11313901045B5FBF2F402FB145580B240EA054552
S11313A0B5FBF2F002FB105240EA044070BD0000AD
S11313B062B38B0708D0521E11F8013B00F8013BC1
S11313C000F024808B07F6D1830740F0208000BF13
S11313D0103A07D330B4B1E83810103AA0E8381006
S11313E0F9D230BC530724BFB1E80810A0E80810B4
S11313F044BF51F8043B40F8043BD20724BF31F802
S1131400022B20F8022B44BF0B7803707047083A74
S113141007D3B1E80810083A40F8043B40F804CB7D
S1131420F7D25307E4E730B4436803F000420121E4
S11314301B031B0B436004BF0368002B08D10DE0A2
S11314400368DD0F45EA440444605B000360491E01
S11314504468E302F4D523031B0B436043681A4337
S11314604260084630BC70474FF4001C1CEB410F2F
S113147094BF1CEB430F09E041EA030C50EA4C0C07
S113148052EA0C0C03D2994208BF9042704714BF31
S11314908B428242704700004FF4001C1CEB410F4A
S11314A094BF1CEB430F09E041EA030C50EA4C0CD7
S11314B052EA0C0C03D28B4208BF8242704714BF1D
S11314C0994290427047000070B504460D4660682A
S11314D0C0F30A5040F2FF71884207D160680003EC
S11314E004BF2068002817D0022070BD20B9204610
S11314F0FFF799FF012867DA012D0FDB40F2FF7136
S1131500091A8D420AD36068002847BF00202F497A
S113151000202F49C4E90001012070BD4142A942C5
S1131520616806DA6FF31E51401941EA00506060A9
S113153041E0401E63680122451962F31F5305F11F
S1131540350001F000416360352803D36160002059
S1131550206070BD002215F11F0F04DA2268236099
S1131560002020356060684213D0521E25689241E5
S1131570C0F12003D2439D4045EAD27225686668D3
S1131580C54006FA03F32B432360636823FA00F093
S11315906060606808436060B2F1004F03D80DD109
S11315A02078C0070AD52068401C2060206828B92C
S11315B06068401C60604FF0FF3070BD6068884216
S11315C004BF20680028F6D1002070BD0000F0FFA1
S11315D00000F07FF446400D40EAC120490006D2E5
S11315E000F014F8004248BF6FF00040604700F07C
S11315F00DF84FF0004188428CBF084640426047D6
S1131600400D40EAC120490080F00D8040F00040C8
S1131610490DA1F58061491C05D4D1F11F0154BFC6
S1131620C840C01770474FF000007047010040F1F8
S11316300980F446404200F005F851F0004160474B
S1131640010000BF09D0B0FA80F18840C91CC1F57F
S11316508461090501EBD0214005704770B44FF057
S1131660004591EA030F44BF6B4000F0B5BA00BFD8
S1131670841A71EB030604D26E40001BB1411219A7
S113168073414FF4001C1CEB410F34BF7CEB430649
S113169084E00C0DA4EB1356362E7DDC012E43DCC6
S11316A045EAC32343EA525312BFD20292025B08B3
S11316B0240545EAC12141EA5051D2EBC0209941A9
S11316C025D407D1B0FA80F610FA06F164D00020D0
S11316D0203608E0B1FA81F6B140C6F1200220FAC2
S11316E002F21143B0404FEAF474B4EB465434F0C0
S11316F001064FEA74040AD8D6F50016760D04F0F4
S11317000044F04061FA06F25040F1404840C00AFB
S113171040EA415021F0004128BF5FEA500550F1F2
S1131720000044EBD12137E045EAC323DB0A45EA54
S1131730C121C90AB6F120050EDD42EA0242120CAB
S1131740C5F1200603FA06F6EB4042EA06056D42AF
S1131750984161F100010DE062FA06F5F24055404E
S113176063FA06FC82EA0C02F3405A406D4290414F
S113177061EB030111F4801F05D1641E620502D0E0
S11317806D004041494121F48011430875F1004343
S113179050F1000041EB045170BC70471CEB410F49
S11317A015D223F0004352EA43060BD04FEA4C0C07
S11317B0BCEB410F04D80C0D661E342EB7DDEBE7ED
S11317C0801A994150EA410608BF0021E4E708BFA6
S11317D01CEB430F28BF6FF00001DDE7B0B581EAD1
S11317E0030C0CF0004C40F2FF7515EA11541DBFB8
S11317F015EA1357AC42AF4239E0E41923EA4553E2
S113180043F48013C90241F0004141EA505EC7022B
S11318101100A7FB020200284FF00000EEFB01209C
S11318204FF00001E3FB072118BF42F0010240180A
S113183000214941E3FB0E01A4F580640F0302D2A9
S113184052004041494154F101046CDD470872F1F2
S1131850004250F1000051EB0451A1F580115CBF2E
S113186041EA0C01B0BD4CEA05510020B0BD05EAC7
S11318701357AC4214BFAF4241E050EA410E1CBFC3
S113188052EA430E02E061460020B0BD24423C44CB
S11318901BD15FEA070EF6D0090302BF0146002000
S11318A0AEF1140EB1FA81F7AEEB070401FA07FEAC
S11318B00C37C7F1200100FA07F7C8404EEA000EC2
S11318C023EA455343F48013A2E733F00043B3FA09
S11318D083F704BFB2FA82FE77440B3FE41BB7F1EF
S11318E0200E2FBF02FA0EF3BB40C7F1200E22FADE
S11318F00EFE38BF43EA0E03BA40641C82E750EA86
S1131900410E14BF52EA430E6FF000014FF400176A
S113191017EB430F8ABF194617EB410FB5E74CEAA3
S113192005510020B0BDD4F10104B4F120070FDA51
S1131930C4F12007520828BF42F0010210FA07F54B
S113194001FA07F7E1BF2A43E0403843E1400FE0E2
S1131950352C98DCC7F1200452EA400220FA07F241
S113196018BF42F0010231FA07F0A1400A430021F6
S113197072F1004250F1000051EB0C01B0BD0000C7
S1131980F0B540F2FF7581EA030C0CF0004C15EA47
S113199011541DBF15EA1357AC42AF42E5E0BC41F8
S11319A0C1F31301C3F31303801A994143F4801361
S11319B004D2641E4000494180185941C90241EAD9
S11319C05051B1FBF3F603FB1611A2FB0675D7EBDE
S11319D0C020A94102D2761E80185941C90241EAA9
S11319E05051B1FBF3FE03FB1E11A2FB0E75D7EBA6
S11319F0C020A94103D2AEF1010E801859418902D9
S1131A0041EA9051760546EA8E2EB1FBF3F603FBCC
S1131A101611A2FB0675D7EB8020A94102D2761ECF
S1131A2080185941C90241EA50514EEA060EB1FBF1
S1131A30F3F603FB1611A2FB0675D7EBC020A941F0
S1131A4002D2761E80185941C90241EA5051B1FBB5
S1131A50F3F703FB1711A2FB0735D3EBC020A94111
S1131A6067F100070CBF004247F0010766F3D52772
S1131A704FEA1E31B80814F5806412DDBD0775F114
S1131A80004250EB0E5051EB045111F5801F5CBF26
S1131A9041EA0C01F0BD4CF07F6141F0E0410020CF
S1131AA0F0BDBD076D0840EA0E5041F48011D4F139
S1131AB00104B4F120060ADAC4F120060200E04071
S1131AC001FA06F3E1401843B24015430EE0342C0A
S1131AD013DCC6F1200445EA40056D0820FA06F23D
S1131AE0154321FA06F0A1400D43002175F100428F
S1131AF050F1000051EB0C01F0BD00205FEA0C0135
S1131B00F0BDCFB992185B41B3FA83F704BFB2FAC0
S1131B1082F6BF190B3FB7F120062FBF02FA06F376
S1131B20BB40C7F1200622FA06F638BF3343BA4059
S1131B301CB1E419641E33E77F4231F00041B1FA6D
S1131B4081F404BFB0FA80F6A4190B3CB4F120066A
S1131B502FBF00FA06F1A140C4F1200620FA06F6D0
S1131B6038BF3143A0403C1B1AE7AC421ABF05EA18
S1131B701357AF4212E050EA41061CBF52EA430633
S1131B80BFE750EA4107304661461CBF41EA0551B0
S1131B90F0BD52EA430C08BFC143F0BD00204FF42E
S1131BA0001616EB410F98BF16EB430F08BF16EB58
S1131BB0410F24BFC14305E016EB430F0CBF614640
S1131BC04CEA0551F0BD91FBF2F303FB1211C0E99D
S1131BD00031704770470000841A71EB030603D28A
S1131BE0001BB141121973414FF4001C1CEB410F4F
S1131BF034BF7CEB430443E00C0DA4EB1356352EA9
S1131C0050DC45EAC323DB0A45EAC121C912B6F117
S1131C1020050DDD63FA05F6EB4086EA0305124262
S1131C2018BF45F00105C01851F100010CD213E0B2
S1131C3062FA06F5F2405540F3415A40B340F3408E
S1131C405A408018594107D349085FEA30005FEAD7
S1131C50350528BF45F0010501F58011420875F1ED
S1131C60004250F1000041EB045170BC4FF4001CE1
S1131C701CEB410F38BF70470020090D0905704760
S1131C801CEB410F10D252EA43060BD0BCEB410FC0
S1131C9005D80C0DAB43661E342EB5DD02E0AB4314
S1131CA08018594170BC704770BC70474FF488600D
S1131CB0DFF8A81208604FF48860DFF8A412086007
S1131CC04FF48860DFF88C1208604FF48860DFF806
S1131CD088120860DFF84C02006850F08070DFF86A
S1131CE0441208600820DFF848120860DFF8780220
S1131CF0006850F00800DFF870120860DFF868022E
S1131D00006830F00400DFF860120860DFF8580261
S1131D10006850F02000DFF850120860DFF84C0231
S1131D20006850F00800DFF844120860DFF83C0255
S1131D30006830F00400DFF834120860DFF82C0289
S1131D40006850F02000DFF824120860DFF8200259
S1131D50006850F00800DFF818120860DFF810027D
S1131D60006830F00400DFF808120860DFF80002B1
S1131D70006850F02000DFF8F8110860DFF8F40183
S1131D80006850F00800DFF8EC110860DFF8E401A7
S1131D90006830F00400DFF8DC110860DFF8D401DB
S1131DA0006850F02000DFF8CC110860DFF8C801AB
S1131DB0006850F00400DFF8C0110860DFF8B801D3
S1131DC0006840084000DFF8B01108600020DFF828
S1131DD0AC1108600020DFF8A81108600020DFF8CB
S1131DE0A41108600020DFF8A0110860DFF89C014E
S1131DF0006840084000DFF8941108600020DFF814
S1131E00901108600020DFF88C1108600020DFF8D2
S1131E10881108600020DFF81411086043F6982048
S1131E20DFF8041108600020DFF87011086000205A
S1131E30DFF86C1108600020DFF8681108600020EA
S1131E40DFF86411086070474148006850F400707E
S1131E503F4908604FF4C060424908604FF4C060D5
S1131E60544908604FF4C060534908604FF4C0609F
S1131E70524908602B48006850F0007029490860F6
S1131E802F48006850F080702D49086043F2B0601C
S1131E902849086043F2B0602A49086000202649B6
S1131EA008600020284908604048006850F0040099
S1131EB03E4908604248006850F004004049086008
S1131EC03A48006850F00100384908603C4800680E
S1131ED050F001003A4908603548006850F00800A5
S1131EE0334908603248006850F001003049086006
S1131EF03448006850F008003249086031480068EE
S1131F0050F001002F4908600C48006850F0180098
S1131F100A4908600D48006850F018000B49086031
S1131F20704700003C800440088003404C8003401C
S1131F3000800340089003404C900340009003400D
S1131F403080044008800B404C800B4000800B40E4
S1131F503880044010C0044014C0044018C0044039
S1131F601CC0044000A004402C8003403480034083
S1131F703C80034044800340548003406480034019
S1131F805C8003406C800340708003408080034089
S1131F909080034094800340988003404080034035
S1131FA0488003403080034038800340549003400D
S1131FB08090034004A0044048A004404CA0044086
S1131FC054800B4080800B40DFF800F01104FF1FA9
S1131FD010B5C0B230282DD0322800F0908060288F
S1131FE000F09480642800F098806E2800F09C80B3
S1131FF0782800F0A0807D2800F0A480822800F0DA
S1132000A8808C2800F0AC80962800F0B080A0282E
S113201000F0B480AA2800F0B880B42800F0BC8096
S1132020C82800F0C080E12800F0C480FA2800F03D
S1132030C880CDE0182068490870002066494870BF
S113204000206549887064484078183080B2322195
S1132050484361490978491C89B290FBF1F4002096
S11320605E4908705E48006850F080505C49086022
S11320705C48007850F080005A49087098205A490A
S113208008705A480078C006FBD458480078C0F35A
S11320908100C0B20228F8D14F48007810F01F0028
S11320A0534908700020534908704B4843794A4803
S11320B002794948C17848488078FFF785FF464847
S11320C0407810F01F0050F040004A49087047481B
S11320D000788006FBD5454800784006FBD5424889
S11320E0007810F03F004049087040480078C0F381
S11320F08100C0B20328F8D12000C0B210BD18205E
S11321003549087001203449487099E7182032494C
S1132110087018203049487092E718202E4908703A
S11321201A202D4948708BE718202B4908701F206E
S11321302949487084E71320274908701820264944
S113214048707DE71320244908701A2022494870FA
S113215076E71320204908701C201F4948706FE758
S11321600E201D49087012201B49487068E70E2094
S11321701949087015201849487061E70E2016495E
S113218008701820144948705AE70E201249087044
S11321901B201149487053E70E200F4908701E2078
S11321A00D4948704CE70C200B4908701C200A4963
S11321B0487045E70B20084908701E2006494870FE
S11321C03EE70A20044908701F200349487037E796
S11321D06420FFF7FDFE91E75C04FF1F0140064009
S11321E03480044008C007400040064006400640D2
S11321F004400640054006404CF2205050490880F7
S11322004DF628104E4908804E4800884FF6FE715E
S113221008404C49088070474B484C4988420BD0D1
S1132220002006E0494951F82010474A42F820109E
S1132230401CB0F5826FF5D34348454908604549D1
S1132240454A4648801A03E013780B70521C491C17
S11322500300581E002BF7D141494248401A02E0BE
S113226000220A70491C0200501E002AF8D13E497F
S11322703E4A3F48801A03E013780B70521C491CF5
S11322800300581E002BF7D1704710B504005C2CD6
S113229002DB384800F07EF8202094FBF0F00028A0
S11322A003D0022833D019D349E033480068012110
S11322B0202294FBF2F303FB1243994008432E4976
S11322C008602E4800680121202294FBF2F303FBEE
S11322D01243994008432949086030E028480068BF
S11322E00121202294FBF2F303FB1243994008439B
S11322F023490860234800680121202294FBF2F35B
S113230003FB1243994008431E49086017E01E4826
S113231000680121202294FBF2F303FB124399404D
S1132320084319490860194800680121202294FBD8
S1132330F2F303FB1243994008431449086010BDAB
S11323400E200540002005400000FF1F0000000093
S113235008ED00E05C04FF1FD0280000E028000026
S11323606C04FF1FA404FF1F1004FF1F202700009C
S11323706C2700006C27000080E200E000E100E030
S113238084E200E004E100E088E200E008E100E02B
S1132390704700000EB400B582B003A90091024654
S11323A000AB0121034878440A30FEF74FF806BC1D
S11323B05DF810FB050500007047704700203F4999
S11323C00860704700203E490860704770473D48E8
S11323D00068401C3B4908603B48006850F001001D
S11323E03949086070470020384908603848006857
S11323F050F001003649086070473648006850F0D4
S113240001003449086070473348006850F0010007
S113241031490860704731480068C00105D52F482C
S1132420006850F080702D49086070472C4800689F
S1132430000205D52B48006850F0807029490860D7
S1132440704729480068400421D51E48006829289F
S113245002DB0020254908601A4800682449234A01
S11324601268505400201749086020480068401C36
S11324701E4908601D480068212802D101201D4919
S113248008601948006850F4804017490860704794
S113249019480068C00705D51748006850F00100C6
S11324A015490860704715480068C00705D51348EA
S11324B0006850F0010011490860704750800340E3
S11324C0509003406C04FF1F0C71034004900340C0
S11324D01C7103402C7103403C710340A0900440E4
S11324E0A0A004405CA00440A0B004407004FF1FFE
S11324F07804FF1F7404FF1FA0C00440A0D0044050
S1132500002200E0521C824213DA00210DE000BFD9
S113251000BF00BF00BF00BF00BF00BF00BF00BFBF
S113252000BF5B1CF52BF2DB491CF529EADA00231A
S1132530F8E7704780B572B6FFF75EFEFFF76CFEF2
S11325401348006850F47850114908609620FFF74A
S11325503FFD00F023F800F039F8FFF7A7FBFFF781
S113256073FC62B64FF47A6008490860012000F0F9
S113257053F808490860002000F04EF80649086046
S11325804FF47A70FFF7BCFFF0E700004880034087
S1132590388004409C04FF1FA004FF1F80B5174827
S11325A0006850F4000015490860002014490860D0
S11325B04AF6C870134908601348006850F00200D6
S11325C0114908604420FFF760FE01BD80B50B4847
S11325D0006850F4000009490860002008490860B8
S11325E00A480B4908600B48006850F0020009498A
S11325F008604520FFF749FE01BD00003C8004400F
S1132600007003400071034008710340B0710B0077
S11326101071034018710340C0B2002817D0DFF8CE
S113262078000068C0F38000C0B2002804D0DFF84E
S11326306C000068404205E043F2B060DFF85C10D3
S11326400968401A0021DFF85420116018E0DFF80F
S113265050000068C0F38000C0B2002803D0DFF847
S11326604400006808E043F2B060DFF838100968FD
S1132670401A5FF0FF3148430021DFF82820116041
S1132680DFF82410884200DA002042F211718842F7
S113269000DB00207047000080800B4004800B406A
S11326A08090034004900340F0D8FFFF80B500F011
S11326B033F802000023DB431068984204D0110071
S11326C00220ABBE002010605068984204D0111D57
S11326D00220ABBE0020506001BD000010B584B0E4
S11326E0040000F019F8A100421810680021C94341
S11326F088420DD107A00090002C01D1002000E0F9
S1132700042001900320029069460120ABBE1060B2
S113271004B010BD3A747400004870476404FF1F8D
S113272070B4104C24680F4D2D6855F47F050D4E80
S11327303560090611F0706151EA0070110511F459
S113274070010843190411F4702108430649086014
S1132750002000E0401C9842FCD30248046070BC96
S1132760704700BF00F00140448004400A455252C3
S11327702120496E76616C6964204952512076614A
S11327806C75652070617373656420746F20656E69
S113279061626C65206972712066756E6374696F1D
S11327A06E210A0010B5044682B014F1010F0AD05C
S11327B08DF80000012200A9012000F007F801288B
S11327C001D1204616BD4FF0FF3016BD80B500285C
S11327D002D400F003F802BD002002BD80B5002938
S11327E001D1002002BD012801D0022802D100F04D
S11327F004F802BD00F011F802BD30B583B00C003E
S113280015000120FFF76AFF0090019402956946C4
S11328100520ABBE281A03B030BD10B584B0030048
S1132820140000930191029469460520ABBE012275
S11328301900201AC046C04604B010BD10B507499F
S113284079441831064C7C44163404E00A68081DA7
S1132850511888470146A142F8D110BD0800000074
S11328601400000093E9FFFF380000006C04FF1F10
S11328700000000000F00BF8002801D0FFF7DEFF95
S11328800020C046C046FFF755FE00F002F80120C4
S1132890704700F001B800000746384600F002F81F
S11328A0FBE7000080B5FFF701FF024A1100182082
S11328B0ABBEFBE72600020038B504460D462846A9
S11328C0FFF770FFA84218BF0024204632BD000065
S11328D00B1F000000090000FFFFFFFFFFFFFFFFC9
S11328E0C046C046C046C046FFF7C4FF80B5FFF7E8
S10728F04FFD01BDD6
S90328E1F3
